{
  "_format": "hh-sol-artifact-1",
  "contractName": "EncryptedFeedback",
  "sourceName": "contracts/EncryptedFeedback.sol",
  "abi": [
    {
      "anonymous": false,
      "inputs": [
        {
          "indexed": true,
          "internalType": "address",
          "name": "owner",
          "type": "address"
        },
        {
          "indexed": true,
          "internalType": "uint256",
          "name": "boxId",
          "type": "uint256"
        }
      ],
      "name": "BoxClosed",
      "type": "event"
    },
    {
      "anonymous": false,
      "inputs": [
        {
          "indexed": true,
          "internalType": "address",
          "name": "owner",
          "type": "address"
        },
        {
          "indexed": true,
          "internalType": "uint256",
          "name": "boxId",
          "type": "uint256"
        },
        {
          "indexed": false,
          "internalType": "string",
          "name": "title",
          "type": "string"
        },
        {
          "indexed": false,
          "internalType": "enum EncryptedFeedback.BoxCategory",
          "name": "category",
          "type": "uint8"
        }
      ],
      "name": "BoxCreated",
      "type": "event"
    },
    {
      "anonymous": false,
      "inputs": [
        {
          "indexed": true,
          "internalType": "address",
          "name": "owner",
          "type": "address"
        },
        {
          "indexed": true,
          "internalType": "uint256",
          "name": "boxId",
          "type": "uint256"
        }
      ],
      "name": "BoxReopened",
      "type": "event"
    },
    {
      "anonymous": false,
      "inputs": [
        {
          "indexed": true,
          "internalType": "uint256",
          "name": "boxId",
          "type": "uint256"
        },
        {
          "indexed": true,
          "internalType": "uint256",
          "name": "feedbackId",
          "type": "uint256"
        }
      ],
      "name": "FeedbackDeleted",
      "type": "event"
    },
    {
      "anonymous": false,
      "inputs": [
        {
          "indexed": true,
          "internalType": "uint256",
          "name": "boxId",
          "type": "uint256"
        },
        {
          "indexed": true,
          "internalType": "uint256",
          "name": "feedbackId",
          "type": "uint256"
        }
      ],
      "name": "FeedbackRead",
      "type": "event"
    },
    {
      "anonymous": false,
      "inputs": [
        {
          "indexed": true,
          "internalType": "uint256",
          "name": "boxId",
          "type": "uint256"
        },
        {
          "indexed": true,
          "internalType": "uint256",
          "name": "feedbackId",
          "type": "uint256"
        },
        {
          "indexed": false,
          "internalType": "uint8",
          "name": "rating",
          "type": "uint8"
        },
        {
          "indexed": false,
          "internalType": "enum EncryptedFeedback.Sentiment",
          "name": "sentiment",
          "type": "uint8"
        }
      ],
      "name": "FeedbackSubmitted",
      "type": "event"
    },
    {
      "inputs": [],
      "name": "MAX_BOXES_PER_OWNER",
      "outputs": [
        {
          "internalType": "uint256",
          "name": "",
          "type": "uint256"
        }
      ],
      "stateMutability": "view",
      "type": "function"
    },
    {
      "inputs": [],
      "name": "MAX_CHUNKS_PER_FEEDBACK",
      "outputs": [
        {
          "internalType": "uint256",
          "name": "",
          "type": "uint256"
        }
      ],
      "stateMutability": "view",
      "type": "function"
    },
    {
      "inputs": [
        {
          "internalType": "uint256",
          "name": "boxId",
          "type": "uint256"
        }
      ],
      "name": "closeBox",
      "outputs": [],
      "stateMutability": "nonpayable",
      "type": "function"
    },
    {
      "inputs": [
        {
          "internalType": "string",
          "name": "title",
          "type": "string"
        },
        {
          "internalType": "string",
          "name": "description",
          "type": "string"
        },
        {
          "internalType": "enum EncryptedFeedback.BoxCategory",
          "name": "category",
          "type": "uint8"
        },
        {
          "internalType": "bool",
          "name": "allowRatings",
          "type": "bool"
        },
        {
          "internalType": "bool",
          "name": "allowSentiment",
          "type": "bool"
        }
      ],
      "name": "createBox",
      "outputs": [
        {
          "internalType": "uint256",
          "name": "",
          "type": "uint256"
        }
      ],
      "stateMutability": "nonpayable",
      "type": "function"
    },
    {
      "inputs": [
        {
          "internalType": "uint256",
          "name": "globalBoxId",
          "type": "uint256"
        },
        {
          "internalType": "uint256",
          "name": "feedbackId",
          "type": "uint256"
        }
      ],
      "name": "deleteFeedback",
      "outputs": [],
      "stateMutability": "nonpayable",
      "type": "function"
    },
    {
      "inputs": [
        {
          "internalType": "uint256",
          "name": "globalBoxId",
          "type": "uint256"
        }
      ],
      "name": "getBoxDetails",
      "outputs": [
        {
          "components": [
            {
              "internalType": "uint256",
              "name": "id",
              "type": "uint256"
            },
            {
              "internalType": "address",
              "name": "owner",
              "type": "address"
            },
            {
              "internalType": "string",
              "name": "title",
              "type": "string"
            },
            {
              "internalType": "string",
              "name": "description",
              "type": "string"
            },
            {
              "internalType": "enum EncryptedFeedback.BoxCategory",
              "name": "category",
              "type": "uint8"
            },
            {
              "internalType": "bool",
              "name": "isActive",
              "type": "bool"
            },
            {
              "internalType": "uint256",
              "name": "createdAt",
              "type": "uint256"
            },
            {
              "internalType": "uint256",
              "name": "closedAt",
              "type": "uint256"
            },
            {
              "internalType": "uint256",
              "name": "submissionCount",
              "type": "uint256"
            },
            {
              "internalType": "bool",
              "name": "allowRatings",
              "type": "bool"
            },
            {
              "internalType": "bool",
              "name": "allowSentiment",
              "type": "bool"
            }
          ],
          "internalType": "struct EncryptedFeedback.FeedbackBox",
          "name": "",
          "type": "tuple"
        }
      ],
      "stateMutability": "view",
      "type": "function"
    },
    {
      "inputs": [
        {
          "internalType": "uint256",
          "name": "globalBoxId",
          "type": "uint256"
        }
      ],
      "name": "getBoxFeedback",
      "outputs": [
        {
          "components": [
            {
              "internalType": "uint256",
              "name": "id",
              "type": "uint256"
            },
            {
              "internalType": "uint256",
              "name": "boxId",
              "type": "uint256"
            },
            {
              "internalType": "uint8",
              "name": "rating",
              "type": "uint8"
            },
            {
              "internalType": "enum EncryptedFeedback.Sentiment",
              "name": "sentiment",
              "type": "uint8"
            },
            {
              "internalType": "uint256",
              "name": "submittedAt",
              "type": "uint256"
            },
            {
              "internalType": "bool",
              "name": "isRead",
              "type": "bool"
            },
            {
              "internalType": "uint8",
              "name": "chunkCount",
              "type": "uint8"
            }
          ],
          "internalType": "struct EncryptedFeedback.FeedbackMetadata[]",
          "name": "",
          "type": "tuple[]"
        }
      ],
      "stateMutability": "view",
      "type": "function"
    },
    {
      "inputs": [
        {
          "internalType": "uint256",
          "name": "globalBoxId",
          "type": "uint256"
        }
      ],
      "name": "getBoxStats",
      "outputs": [
        {
          "components": [
            {
              "internalType": "uint256",
              "name": "totalSubmissions",
              "type": "uint256"
            },
            {
              "internalType": "uint256",
              "name": "unreadCount",
              "type": "uint256"
            },
            {
              "internalType": "uint256",
              "name": "avgRating",
              "type": "uint256"
            },
            {
              "internalType": "uint256",
              "name": "positiveCount",
              "type": "uint256"
            },
            {
              "internalType": "uint256",
              "name": "neutralCount",
              "type": "uint256"
            },
            {
              "internalType": "uint256",
              "name": "negativeCount",
              "type": "uint256"
            }
          ],
          "internalType": "struct EncryptedFeedback.BoxStats",
          "name": "",
          "type": "tuple"
        }
      ],
      "stateMutability": "view",
      "type": "function"
    },
    {
      "inputs": [
        {
          "internalType": "uint256",
          "name": "globalBoxId",
          "type": "uint256"
        },
        {
          "internalType": "uint256",
          "name": "feedbackId",
          "type": "uint256"
        }
      ],
      "name": "getFeedbackContent",
      "outputs": [
        {
          "internalType": "bytes32[]",
          "name": "handles",
          "type": "bytes32[]"
        },
        {
          "components": [
            {
              "internalType": "uint256",
              "name": "id",
              "type": "uint256"
            },
            {
              "internalType": "uint256",
              "name": "boxId",
              "type": "uint256"
            },
            {
              "internalType": "uint8",
              "name": "rating",
              "type": "uint8"
            },
            {
              "internalType": "enum EncryptedFeedback.Sentiment",
              "name": "sentiment",
              "type": "uint8"
            },
            {
              "internalType": "uint256",
              "name": "submittedAt",
              "type": "uint256"
            },
            {
              "internalType": "bool",
              "name": "isRead",
              "type": "bool"
            },
            {
              "internalType": "uint8",
              "name": "chunkCount",
              "type": "uint8"
            }
          ],
          "internalType": "struct EncryptedFeedback.FeedbackMetadata",
          "name": "metadata",
          "type": "tuple"
        }
      ],
      "stateMutability": "view",
      "type": "function"
    },
    {
      "inputs": [
        {
          "internalType": "uint256",
          "name": "globalBoxId",
          "type": "uint256"
        }
      ],
      "name": "getFeedbackCount",
      "outputs": [
        {
          "internalType": "uint256",
          "name": "",
          "type": "uint256"
        }
      ],
      "stateMutability": "view",
      "type": "function"
    },
    {
      "inputs": [],
      "name": "getMyBoxes",
      "outputs": [
        {
          "components": [
            {
              "internalType": "uint256",
              "name": "id",
              "type": "uint256"
            },
            {
              "internalType": "address",
              "name": "owner",
              "type": "address"
            },
            {
              "internalType": "string",
              "name": "title",
              "type": "string"
            },
            {
              "internalType": "string",
              "name": "description",
              "type": "string"
            },
            {
              "internalType": "enum EncryptedFeedback.BoxCategory",
              "name": "category",
              "type": "uint8"
            },
            {
              "internalType": "bool",
              "name": "isActive",
              "type": "bool"
            },
            {
              "internalType": "uint256",
              "name": "createdAt",
              "type": "uint256"
            },
            {
              "internalType": "uint256",
              "name": "closedAt",
              "type": "uint256"
            },
            {
              "internalType": "uint256",
              "name": "submissionCount",
              "type": "uint256"
            },
            {
              "internalType": "bool",
              "name": "allowRatings",
              "type": "bool"
            },
            {
              "internalType": "bool",
              "name": "allowSentiment",
              "type": "bool"
            }
          ],
          "internalType": "struct EncryptedFeedback.FeedbackBox[]",
          "name": "",
          "type": "tuple[]"
        }
      ],
      "stateMutability": "view",
      "type": "function"
    },
    {
      "inputs": [],
      "name": "getTotalBoxes",
      "outputs": [
        {
          "internalType": "uint256",
          "name": "",
          "type": "uint256"
        }
      ],
      "stateMutability": "view",
      "type": "function"
    },
    {
      "inputs": [
        {
          "internalType": "uint256",
          "name": "globalBoxId",
          "type": "uint256"
        },
        {
          "internalType": "uint256",
          "name": "feedbackId",
          "type": "uint256"
        }
      ],
      "name": "markAsRead",
      "outputs": [],
      "stateMutability": "nonpayable",
      "type": "function"
    },
    {
      "inputs": [],
      "name": "protocolId",
      "outputs": [
        {
          "internalType": "uint256",
          "name": "",
          "type": "uint256"
        }
      ],
      "stateMutability": "pure",
      "type": "function"
    },
    {
      "inputs": [
        {
          "internalType": "uint256",
          "name": "boxId",
          "type": "uint256"
        }
      ],
      "name": "reopenBox",
      "outputs": [],
      "stateMutability": "nonpayable",
      "type": "function"
    },
    {
      "inputs": [
        {
          "internalType": "uint256",
          "name": "globalBoxId",
          "type": "uint256"
        },
        {
          "internalType": "externalEuint32[]",
          "name": "encryptedChunks",
          "type": "bytes32[]"
        },
        {
          "internalType": "bytes",
          "name": "inputProof",
          "type": "bytes"
        },
        {
          "internalType": "uint8",
          "name": "rating",
          "type": "uint8"
        },
        {
          "internalType": "enum EncryptedFeedback.Sentiment",
          "name": "sentiment",
          "type": "uint8"
        }
      ],
      "name": "submitFeedback",
      "outputs": [
        {
          "internalType": "uint256",
          "name": "",
          "type": "uint256"
        }
      ],
      "stateMutability": "nonpayable",
      "type": "function"
    },
    {
      "inputs": [
        {
          "internalType": "uint256",
          "name": "boxId",
          "type": "uint256"
        },
        {
          "internalType": "string",
          "name": "title",
          "type": "string"
        },
        {
          "internalType": "string",
          "name": "description",
          "type": "string"
        }
      ],
      "name": "updateBox",
      "outputs": [],
      "stateMutability": "nonpayable",
      "type": "function"
    }
  ],
  "bytecode": "0x608060405234610155576000606061001561015a565b828152826020820152826040820152015261002e61015a565b606073687820221192c5b662b25367f70076a37bc79b6c9182815273848b0066793bcc60346da1f49049357399b8d59580602083015273a02cda4ca3a71d7c46997716f4283aa851c2881291826040820152731364cbbf2cdf5032c47d8226a6f6fbd2afcdacac938491015260018060a01b0319937f9e7b61f58c47dc699ac88507c4f5bb9f121c03808c5676a8078fe583e464970090858254161790557f9e7b61f58c47dc699ac88507c4f5bb9f121c03808c5676a8078fe583e464970190848254161790557f9e7b61f58c47dc699ac88507c4f5bb9f121c03808c5676a8078fe583e464970290838254161790557f9e7b61f58c47dc699ac88507c4f5bb9f121c03808c5676a8078fe583e464970391825416179055604051611e4690816101908239f35b600080fd5b60405190608082016001600160401b0381118382101761017957604052565b634e487b7160e01b600052604160045260246000fdfe60c0604052600436101561001257600080fd5b60e060003560e01c908163067575971461168a5781630fceb9ab146115c45781632a9af62b1461159a5781632ec63a0e1461150c5781634537b764146114e05781634b94266214611339575080635d51a8f01461131d57806362d3c4d814610e4a5780636a6e157114610d9e5780637aaf3fa61461089f5780638d0a9b51146107c7578063aa7ed1ff1461057f578063b3d50346146104b7578063da1f12ab1461049a578063db20154314610322578063e4203c9a146103065763f9060267146100db57600080fd5b34610301576060366003190112610301576004356001600160401b036024358181116103015761010f9036906004016117b5565b90604435838111610301576101289036906004016117b5565b9290913360005261015b6020966000885261014960406000205482106118cf565b33600052600088526040600020611910565b50918061023f575b5050600301928211610229576101838261017d8554611b20565b85611b5a565b600093601f83116001146101c557506101b6929382916000926101ba575b50508160011b916000199060031b1c19161790565b9055005b0135905038806101a1565b90601f198316948460005282600020926000905b8782106102115750508360019596106101f7575b505050811b019055005b0135600019600384901b60f8161c191690553880806101ed565b806001849682949587013581550195019201906101d9565b634e487b7160e01b600052604160045260246000fd5b6002830191868211610229576102598261017d8554611b20565b600090601f831160011461029857918061028e9260039695946000926101ba5750508160011b916000199060031b1c19161790565b90555b9038610163565b601f1983169184600052896000209260005b8b8282106102eb575050916001939185600398979694106102d3575b505050811b019055610291565b013560001983881b60f8161c191690553880806102c6565b60018496829395870135815501950192016102aa565b600080fd5b3461030157600036600319011261030157602060405160648152f35b346103015761033036611742565b610338611a67565b508160005260036020926003845261035e60018060a01b03604060002054163314611942565b60005260019160018452604060002090600052835260406000209060048201549061038a82151561197e565b6002830192835461039a81611a50565b926103a86040519485611a2f565b8184526103b482611a50565b8489019690601f190136883760005b83811061047257505050508060ff915493610411836001840154936005600382015491015494604051986103f68a6119ca565b89528b890152818116604089015260081c1660608701611a9f565b6080850152818116151560a085015260081c1660c08301526040519361010091828601928652518092526101208501939160005b81811061045f5786808761045b8b830189611765565b0390f35b8351865294870194928701928201610445565b978861048082979a84611cf9565b905490851b1c610490828c611aab565b52019794976103c3565b346103015760003660031901126103015760206040516127118152f35b34610301576104c536611742565b908060005260036020526104e760018060a01b03604060002054163314611942565b80600052600180602052604060002083600052602052604060002060048101916105138354151561197e565b60028201805490600081558161055f575b5050509060056000920161ff00198154169055557fdc35c725db879df993018a0f4440c4a7d97e42305ca813784c8969c6ddd98623600080a3005b6000526020600020908101905b818110156105245760008155820161056c565b346103015760208060031936011261030157600435600060a06040516105a481611a14565b8281528285820152826040820152826060820152826080820152015280600052600280835260406000205490600060a05260006080526000809160009360009160009660005b8381106106b4575050608051159791508790506106a857606460a051029660a051880460641460a0511517156106925761067c5760805160c09704915b60a060405161063581611a14565b8881528381019283526040810194855260608101958652608081019687520195865260405196875251908601525160408501525160608401525160808301525160a0820152f35b634e487b7160e01b600052601260045260246000fd5b634e487b7160e01b600052601160045260246000fd5b60c09650600091610627565b816000526001808b526040600020826000528b5260406000209060048201546106e2575b50506001016105ea565b9096996106ee90611abf565b996003808901549260ff8481809616806107a0575b5060081c169182101561078a5781610748575050610722600591611abf565b975b01541615610734575b8a806106d8565b93610740600191611abf565b94905061072d565b989991988103610764575061075e600591611abf565b98610724565b9098908514610776575b600590610724565b98610782600591611abf565b99905061076e565b634e487b7160e01b600052602160045260246000fd5b60a0519081019250821061069257859160a0526107be608051611abf565b60805238610703565b3461030157600036600319011261030157336000526020600081526040600020908154916107f483611a50565b926108026040519485611a2f565b8084528284018092600052836000206000915b83831061087c5750505050604051918083019381845251809452604083019360408160051b85010192916000955b8287106108505785850386f35b90919293828061086c600193603f198a8203018652885161182f565b9601920196019592919092610843565b60098660019261088e859a999a611c55565b815201920192019190959495610815565b346103015760a0366003190112610301576001600160401b03806024351161030157366023602435011215610301578060243560040135116103015736602480356004013560051b813501011161030157604435908111610301576109089036906004016117b5565b9060ff60643516606435036103015760036084351015610301576004356000908152600360205260409020546001600160a01b03166109488115156118cf565b600052600060205260406000206000906000908054915b828110610d26575b50505015610cf1576064359160243560040135151580610ce0575b15610ca5576004356000818152600360205260409020546001600160a01b031692906109ae9084611d11565b9160ff600884015416600014610c9c57600560ff861611610c62575b60043560005260026020526040600020938454946109e786611abf565b905560043560005260016020526040600020856000526020526040600020928584556004356001850155600384015461ffff199061ff00908160843560081b16908360ff8c1691161717600387015542600487015560058601918254916024356004013560081b16911617905560005b602435600401358110610ac057602087808a60078a01610a778154611abf565b905560ff60405191168152610a90848201608435611758565b7f79312dea528a7a78d682dc475c580c4c16eaa9436f19a752ffbd094c56bbf7ec604060043592a3604051908152f35b6000906020610b38610ad3368887611ace565b60018060a01b037f9e7b61f58c47dc699ac88507c4f5bb9f121c03808c5676a8078fe583e464970154169060405195868094819363196d0b9b60e01b835260248960051b813501013560048401523360248401526080604484015260848301906117e2565b6004606483015203925af1918215610c2257600092610c2e575b507f9e7b61f58c47dc699ac88507c4f5bb9f121c03808c5676a8078fe583e4649700546001600160a01b0316803b1561030157604051630f8e573b60e21b815260048101849052336024820152906000908290604490829084905af18015610c2257610c13575b50610bc48483611d95565b610bce3083611d95565b600286015491600160401b83101561022957610bf783600180950160028a015560028901611cf9565b819291549060031b91821b91600019901b191617905501610a57565b610c1c90611a01565b89610bb9565b6040513d6000823e3d90fd5b9091506020813d602011610c5a575b81610c4a60209383611a2f565b8101031261030157519089610b52565b3d9150610c3d565b60405162461bcd60e51b8152602060048201526012602482015271526174696e67206d75737420626520302d3560701b6044820152606490fd5b600094506109ca565b60405162461bcd60e51b8152602060048201526013602482015272125b9d985b1a590818da1d5b9ac818dbdd5b9d606a1b6044820152606490fd5b506080602435600401351115610982565b60405162461bcd60e51b815260206004820152600d60248201526c109bde081b9bdd08199bdd5b99609a1b6044820152606490fd5b610d308183611910565b505460043514610d425760010161095f565b60ff935060049250610d5391611910565b50015460081c1615610d69576001838080610967565b60405162461bcd60e51b815260206004820152600d60248201526c109bde081a5cc818db1bdcd959609a1b6044820152606490fd5b346103015760203660031901126103015761045b610e36610e316004356000610140604051610dcc816119e5565b828152826020820152606060408201526060808201528260808201528260a08201528260c08201528260e08201528261010082015282610120820152015280600052600360205260018060a01b0360406000205416610e2c8115156118cf565b611d11565b611c55565b60405191829160208352602083019061182f565b346103015760a0366003190112610301576004356001600160401b03811161030157610e7a9036906004016117b5565b6024356001600160401b03811161030157610e999036906004016117b5565b9091600560443510156103015760643580151581036103015760843590811515820361030157336000526000602052606460406000205410156112e45782156112ae57610f1c60045495610eec87611abf565b60045560405195610efc876119e5565b878752336020880152610f1036878b611ace565b60408801523691611ace565b6060850152610f3060443560808601611b14565b600160a08501524260c0850152600060e085015260006101008501521515610120840152151561014083015233600052600060205260406000208054600160401b81101561022957610f8791600182018155611910565b929092611298578051835560208101516001840180546001600160a01b0319166001600160a01b039290921691909117905560408101518051906001600160401b03821161022957610fe982610fe06002880154611b20565b60028801611b5a565b602090601f831160011461122a576110199291600091836111b15750508160011b916000199060031b1c19161790565b60028401555b60608101518051906001600160401b0382116102295761104f826110466003880154611b20565b60038801611b5a565b602090601f83116001146111bc5761107f9291600091836111b15750508160011b916000199060031b1c19161790565b60038401555b60808101519460048401600587101561078a576020966101407fea42ae07131fccb076249be47f2828ee6abae7c8e77dea6c070704f139aeb1a594600889986110f86111479660ff199660ff88835416911617815560a0850151151561ff00825491151560081b169061ff001916179055565b60c0830151600582015560e083015160068201556101008301516007820155019260ff61012083015115159185541691161783550151151561ff00825491151560081b169061ff001916179055565b83600052600386526040600020336bffffffffffffffffffffffff60a01b8254161790558260405191604083528160408401526060830137600060608483010152611196868201604435611822565b3392601f01601f1916810181900360600190a3604051908152f35b0151905088806101a1565b90601f198316916003870160005260206000209260005b81811061121257509084600195949392106111f9575b505050811b016003840155611085565b015160001960f88460031b161c191690558780806111e9565b929360206001819287860151815501950193016111d3565b90601f198316916002870160005260206000209260005b8181106112805750908460019594939210611267575b505050811b01600284015561101f565b015160001960f88460031b161c19169055878080611257565b92936020600181928786015181550195019301611241565b634e487b7160e01b600052600060045260246000fd5b60405162461bcd60e51b815260206004820152600e60248201526d151a5d1b19481c995c5d5a5c995960921b6044820152606490fd5b60405162461bcd60e51b815260206004820152601160248201527013585e08189bde195cc81c995858da1959607a1b6044820152606490fd5b3461030157600036600319011261030157602060405160808152f35b346103015760209081600319360112610301579060043580600052600380835261137160018060a01b03604060002054163314611942565b81600052600283526040600020549061138982611a50565b926113976040519485611a2f565b8284526113a383611a50565b601f190160005b8181106114c357505060005b838110611412575050505060405192828493840190808552835180925280604086019401926000905b8382106113ec5786860387f35b9184965082866114026001949698849851611765565b01960192018695949293916113df565b60019082600098969798528180895260406000208260005289526040600020896004820154918261144c575b5050505001959493956113b6565b8054938101549261148e898301549460ff9586916005600896015496604051996114758b6119ca565b8a528901528181166040890152841c1660608701611a9f565b6080850152828216151560a08501521c1660c08201526114ae8289611aab565b526114b98188611aab565b508880898161143e565b95809795966114d0611a67565b82828a01015201969594966113aa565b346103015760203660031901126103015760043560005260026020526020604060002054604051908152f35b346103015761151a36611742565b9080600052600360205261153c60018060a01b03604060002054163314611942565b806000526001602052604060002082600052602052600560406000206115676004820154151561197e565b01805460ff191660011790557fc06c780edb9560f07e316eccfc77ffccb4649824e7f073335fc7e64974e42ce1600080a3005b34610301576000366003190112610301573360005260006020526020604060002054604051908152f35b34610301576020366003190112610301576116076004353360005260006020526115f460406000205482106118cf565b3360005260006020526040600020611910565b5060048101805460ff8160081c16156116505761ff001916905542600682015554337f9d159a476b04b87593ccea91305173283b2ab8194b6c24f720766247b67e90cb600080a3005b60405162461bcd60e51b8152602060048201526012602482015271109bde08185b1c9958591e4818db1bdcd95960721b6044820152606490fd5b34610301576020366003190112610301576116ba6004353360005260006020526115f460406000205482106118cf565b5060048101805460ff8160081c16611708576101009061ff0019161790556000600682015554337f79b91b9e59775129878f42464f6e976555852cf7ef669632559a2759412cd946600080a3005b60405162461bcd60e51b8152602060048201526012602482015271426f7820616c72656164792061637469766560701b6044820152606490fd5b6040906003190112610301576004359060243590565b90600382101561078a5752565b60ff60c08092805185526020810151602086015282604082015116604086015261179760608201516060870190611758565b6080810151608086015260a0810151151560a0860152015116910152565b9181601f84011215610301578235916001600160401b038311610301576020838186019501011161030157565b919082519283825260005b84811061180e575050826000602080949584010152601f8019910116010190565b6020818301810151848301820152016117ed565b90600582101561078a5752565b906118756118636101608451845260018060a01b0360208601511660208501526040850151908060408601528401906117e2565b606084015183820360608501526117e2565b9161188860808201516080840190611822565b60a0810151151560a083015260c081015160c083015260e081015160e083015261010080820151908301526101208082015115159083015261014080910151151591015290565b156118d657565b60405162461bcd60e51b8152602060048201526012602482015271109bde08191bd95cc81b9bdd08195e1a5cdd60721b6044820152606490fd5b805482101561192c576000526009602060002091020190600090565b634e487b7160e01b600052603260045260246000fd5b1561194957565b60405162461bcd60e51b815260206004820152600d60248201526c2737ba103137bc1037bbb732b960991b6044820152606490fd5b1561198557565b60405162461bcd60e51b815260206004820152601760248201527f466565646261636b20646f6573206e6f742065786973740000000000000000006044820152606490fd5b60e081019081106001600160401b0382111761022957604052565b61016081019081106001600160401b0382111761022957604052565b6001600160401b03811161022957604052565b60c081019081106001600160401b0382111761022957604052565b90601f801991011681019081106001600160401b0382111761022957604052565b6001600160401b0381116102295760051b60200190565b60405190611a74826119ca565b8160c06000918281528260208201528260408201528260608201528260808201528260a08201520152565b600382101561078a5752565b805182101561192c5760209160051b010190565b60001981146106925760010190565b9291926001600160401b0382116102295760405191611af7601f8201601f191660200184611a2f565b829481845281830111610301578281602093846000960137010152565b600582101561078a5752565b90600182811c92168015611b50575b6020831014611b3a57565b634e487b7160e01b600052602260045260246000fd5b91607f1691611b2f565b90601f8111611b6857505050565b6000916000526020600020906020601f850160051c83019410611ba6575b601f0160051c01915b828110611b9b57505050565b818155600101611b8f565b9092508290611b86565b90604051918260008254611bc381611b20565b90818452602094600191600181169081600014611c335750600114611bf4575b505050611bf292500383611a2f565b565b600090815285812095935091905b818310611c1b575050611bf29350820101388080611be3565b85548884018501529485019487945091830191611c02565b92505050611bf294925060ff191682840152151560051b820101388080611be3565b90604051611c62816119e5565b61014060ff600883958054855260018060a01b036001820154166020860152611c8d60028201611bb0565b6040860152611c9e60038201611bb0565b6060860152826004820154611cb882821660808901611b14565b831c16151560a0860152600581015460c0860152600681015460e086015260078101546101008601520154818116151561012085015260081c161515910152565b805482101561192c5760005260206000200190600090565b6001600160a01b0316600090815260208190526040812080549290915b838110611d6a5760405162461bcd60e51b815260206004820152600d60248201526c109bde081b9bdd08199bdd5b99609a1b6044820152606490fd5b81611d758285611910565b505414611d8457600101611d2e565b919050611d919250611910565b5090565b7f9e7b61f58c47dc699ac88507c4f5bb9f121c03808c5676a8078fe583e4649700546001600160a01b031691823b1561030157604051635ca4b5b160e11b815260048101929092526001600160a01b03166024820152906000908290604490829084905af18015610c2257611e075750565b611bf290611a0156fea2646970667358221220bfd64141c4878d717c6b065e146ec6547a2aac80a9a991bca4a98166c4807c6d64736f6c63430008180033",
  "linkReferences": {},
  "deployedLinkReferences": {}
}