{
  "_format": "hh-sol-artifact-1",
  "contractName": "EncryptedTasks",
  "sourceName": "contracts/EncryptedTasks.sol",
  "abi": [
    {
      "anonymous": false,
      "inputs": [
        {
          "indexed": true,
          "internalType": "address",
          "name": "owner",
          "type": "address"
        },
        {
          "indexed": true,
          "internalType": "uint256",
          "name": "taskId",
          "type": "uint256"
        },
        {
          "indexed": false,
          "internalType": "bool",
          "name": "archived",
          "type": "bool"
        }
      ],
      "name": "TaskArchived",
      "type": "event"
    },
    {
      "anonymous": false,
      "inputs": [
        {
          "indexed": true,
          "internalType": "address",
          "name": "owner",
          "type": "address"
        },
        {
          "indexed": true,
          "internalType": "uint256",
          "name": "taskId",
          "type": "uint256"
        },
        {
          "indexed": false,
          "internalType": "string",
          "name": "title",
          "type": "string"
        },
        {
          "indexed": false,
          "internalType": "enum EncryptedTasks.Priority",
          "name": "priority",
          "type": "uint8"
        }
      ],
      "name": "TaskCreated",
      "type": "event"
    },
    {
      "anonymous": false,
      "inputs": [
        {
          "indexed": true,
          "internalType": "address",
          "name": "owner",
          "type": "address"
        },
        {
          "indexed": true,
          "internalType": "uint256",
          "name": "taskId",
          "type": "uint256"
        }
      ],
      "name": "TaskDeleted",
      "type": "event"
    },
    {
      "anonymous": false,
      "inputs": [
        {
          "indexed": true,
          "internalType": "address",
          "name": "owner",
          "type": "address"
        },
        {
          "indexed": true,
          "internalType": "uint256",
          "name": "taskId",
          "type": "uint256"
        },
        {
          "indexed": false,
          "internalType": "bool",
          "name": "favorited",
          "type": "bool"
        }
      ],
      "name": "TaskFavorited",
      "type": "event"
    },
    {
      "anonymous": false,
      "inputs": [
        {
          "indexed": true,
          "internalType": "address",
          "name": "owner",
          "type": "address"
        },
        {
          "indexed": true,
          "internalType": "uint256",
          "name": "taskId",
          "type": "uint256"
        },
        {
          "indexed": false,
          "internalType": "enum EncryptedTasks.Priority",
          "name": "newPriority",
          "type": "uint8"
        }
      ],
      "name": "TaskPriorityChanged",
      "type": "event"
    },
    {
      "anonymous": false,
      "inputs": [
        {
          "indexed": true,
          "internalType": "address",
          "name": "owner",
          "type": "address"
        },
        {
          "indexed": true,
          "internalType": "uint256",
          "name": "taskId",
          "type": "uint256"
        },
        {
          "indexed": true,
          "internalType": "address",
          "name": "sharedWith",
          "type": "address"
        }
      ],
      "name": "TaskShared",
      "type": "event"
    },
    {
      "anonymous": false,
      "inputs": [
        {
          "indexed": true,
          "internalType": "address",
          "name": "owner",
          "type": "address"
        },
        {
          "indexed": true,
          "internalType": "uint256",
          "name": "taskId",
          "type": "uint256"
        },
        {
          "indexed": false,
          "internalType": "enum EncryptedTasks.TaskStatus",
          "name": "newStatus",
          "type": "uint8"
        }
      ],
      "name": "TaskStatusChanged",
      "type": "event"
    },
    {
      "anonymous": false,
      "inputs": [
        {
          "indexed": true,
          "internalType": "address",
          "name": "owner",
          "type": "address"
        },
        {
          "indexed": true,
          "internalType": "uint256",
          "name": "taskId",
          "type": "uint256"
        },
        {
          "indexed": false,
          "internalType": "string",
          "name": "title",
          "type": "string"
        }
      ],
      "name": "TaskUpdated",
      "type": "event"
    },
    {
      "inputs": [],
      "name": "MAX_CHUNKS_PER_TASK",
      "outputs": [
        {
          "internalType": "uint256",
          "name": "",
          "type": "uint256"
        }
      ],
      "stateMutability": "view",
      "type": "function"
    },
    {
      "inputs": [],
      "name": "MAX_TASKS_PER_USER",
      "outputs": [
        {
          "internalType": "uint256",
          "name": "",
          "type": "uint256"
        }
      ],
      "stateMutability": "view",
      "type": "function"
    },
    {
      "inputs": [
        {
          "internalType": "externalEuint32[]",
          "name": "encryptedChunks",
          "type": "bytes32[]"
        },
        {
          "internalType": "bytes",
          "name": "inputProof",
          "type": "bytes"
        },
        {
          "internalType": "string",
          "name": "title",
          "type": "string"
        },
        {
          "internalType": "enum EncryptedTasks.Priority",
          "name": "priority",
          "type": "uint8"
        },
        {
          "internalType": "uint256",
          "name": "dueDate",
          "type": "uint256"
        },
        {
          "internalType": "string",
          "name": "category",
          "type": "string"
        },
        {
          "internalType": "string[]",
          "name": "tags",
          "type": "string[]"
        },
        {
          "internalType": "string",
          "name": "color",
          "type": "string"
        }
      ],
      "name": "createTask",
      "outputs": [
        {
          "internalType": "uint256",
          "name": "taskId",
          "type": "uint256"
        }
      ],
      "stateMutability": "nonpayable",
      "type": "function"
    },
    {
      "inputs": [
        {
          "internalType": "uint256",
          "name": "taskId",
          "type": "uint256"
        }
      ],
      "name": "deleteTask",
      "outputs": [],
      "stateMutability": "nonpayable",
      "type": "function"
    },
    {
      "inputs": [],
      "name": "getMyStats",
      "outputs": [
        {
          "components": [
            {
              "internalType": "uint256",
              "name": "totalTasks",
              "type": "uint256"
            },
            {
              "internalType": "uint256",
              "name": "todoTasks",
              "type": "uint256"
            },
            {
              "internalType": "uint256",
              "name": "inProgressTasks",
              "type": "uint256"
            },
            {
              "internalType": "uint256",
              "name": "completedTasks",
              "type": "uint256"
            },
            {
              "internalType": "uint256",
              "name": "archivedTasks",
              "type": "uint256"
            },
            {
              "internalType": "uint256",
              "name": "favoriteTasks",
              "type": "uint256"
            },
            {
              "internalType": "uint256",
              "name": "overdueTasks",
              "type": "uint256"
            },
            {
              "internalType": "uint256",
              "name": "totalStorage",
              "type": "uint256"
            }
          ],
          "internalType": "struct EncryptedTasks.UserStats",
          "name": "",
          "type": "tuple"
        }
      ],
      "stateMutability": "view",
      "type": "function"
    },
    {
      "inputs": [],
      "name": "getMyTasks",
      "outputs": [
        {
          "components": [
            {
              "internalType": "uint256",
              "name": "id",
              "type": "uint256"
            },
            {
              "internalType": "string",
              "name": "title",
              "type": "string"
            },
            {
              "internalType": "enum EncryptedTasks.TaskStatus",
              "name": "status",
              "type": "uint8"
            },
            {
              "internalType": "enum EncryptedTasks.Priority",
              "name": "priority",
              "type": "uint8"
            },
            {
              "internalType": "uint256",
              "name": "dueDate",
              "type": "uint256"
            },
            {
              "internalType": "string",
              "name": "category",
              "type": "string"
            },
            {
              "internalType": "string[]",
              "name": "tags",
              "type": "string[]"
            },
            {
              "internalType": "uint256",
              "name": "createdAt",
              "type": "uint256"
            },
            {
              "internalType": "uint256",
              "name": "updatedAt",
              "type": "uint256"
            },
            {
              "internalType": "uint256",
              "name": "completedAt",
              "type": "uint256"
            },
            {
              "internalType": "uint8",
              "name": "chunkCount",
              "type": "uint8"
            },
            {
              "internalType": "bool",
              "name": "isArchived",
              "type": "bool"
            },
            {
              "internalType": "bool",
              "name": "isFavorite",
              "type": "bool"
            },
            {
              "internalType": "string",
              "name": "color",
              "type": "string"
            },
            {
              "internalType": "address",
              "name": "owner",
              "type": "address"
            }
          ],
          "internalType": "struct EncryptedTasks.TaskMetadata[]",
          "name": "",
          "type": "tuple[]"
        }
      ],
      "stateMutability": "view",
      "type": "function"
    },
    {
      "inputs": [
        {
          "internalType": "address",
          "name": "owner",
          "type": "address"
        },
        {
          "internalType": "uint256",
          "name": "taskId",
          "type": "uint256"
        }
      ],
      "name": "getSharedTaskContent",
      "outputs": [
        {
          "internalType": "bytes32[]",
          "name": "handles",
          "type": "bytes32[]"
        },
        {
          "components": [
            {
              "internalType": "uint256",
              "name": "id",
              "type": "uint256"
            },
            {
              "internalType": "string",
              "name": "title",
              "type": "string"
            },
            {
              "internalType": "enum EncryptedTasks.TaskStatus",
              "name": "status",
              "type": "uint8"
            },
            {
              "internalType": "enum EncryptedTasks.Priority",
              "name": "priority",
              "type": "uint8"
            },
            {
              "internalType": "uint256",
              "name": "dueDate",
              "type": "uint256"
            },
            {
              "internalType": "string",
              "name": "category",
              "type": "string"
            },
            {
              "internalType": "string[]",
              "name": "tags",
              "type": "string[]"
            },
            {
              "internalType": "uint256",
              "name": "createdAt",
              "type": "uint256"
            },
            {
              "internalType": "uint256",
              "name": "updatedAt",
              "type": "uint256"
            },
            {
              "internalType": "uint256",
              "name": "completedAt",
              "type": "uint256"
            },
            {
              "internalType": "uint8",
              "name": "chunkCount",
              "type": "uint8"
            },
            {
              "internalType": "bool",
              "name": "isArchived",
              "type": "bool"
            },
            {
              "internalType": "bool",
              "name": "isFavorite",
              "type": "bool"
            },
            {
              "internalType": "string",
              "name": "color",
              "type": "string"
            },
            {
              "internalType": "address",
              "name": "owner",
              "type": "address"
            }
          ],
          "internalType": "struct EncryptedTasks.TaskMetadata",
          "name": "metadata",
          "type": "tuple"
        }
      ],
      "stateMutability": "view",
      "type": "function"
    },
    {
      "inputs": [],
      "name": "getSharedTasks",
      "outputs": [
        {
          "components": [
            {
              "internalType": "uint256",
              "name": "id",
              "type": "uint256"
            },
            {
              "internalType": "string",
              "name": "title",
              "type": "string"
            },
            {
              "internalType": "enum EncryptedTasks.TaskStatus",
              "name": "status",
              "type": "uint8"
            },
            {
              "internalType": "enum EncryptedTasks.Priority",
              "name": "priority",
              "type": "uint8"
            },
            {
              "internalType": "uint256",
              "name": "dueDate",
              "type": "uint256"
            },
            {
              "internalType": "string",
              "name": "category",
              "type": "string"
            },
            {
              "internalType": "string[]",
              "name": "tags",
              "type": "string[]"
            },
            {
              "internalType": "uint256",
              "name": "createdAt",
              "type": "uint256"
            },
            {
              "internalType": "uint256",
              "name": "updatedAt",
              "type": "uint256"
            },
            {
              "internalType": "uint256",
              "name": "completedAt",
              "type": "uint256"
            },
            {
              "internalType": "uint8",
              "name": "chunkCount",
              "type": "uint8"
            },
            {
              "internalType": "bool",
              "name": "isArchived",
              "type": "bool"
            },
            {
              "internalType": "bool",
              "name": "isFavorite",
              "type": "bool"
            },
            {
              "internalType": "string",
              "name": "color",
              "type": "string"
            },
            {
              "internalType": "address",
              "name": "owner",
              "type": "address"
            }
          ],
          "internalType": "struct EncryptedTasks.TaskMetadata[]",
          "name": "",
          "type": "tuple[]"
        }
      ],
      "stateMutability": "view",
      "type": "function"
    },
    {
      "inputs": [
        {
          "internalType": "uint256",
          "name": "taskId",
          "type": "uint256"
        }
      ],
      "name": "getTaskContent",
      "outputs": [
        {
          "internalType": "bytes32[]",
          "name": "handles",
          "type": "bytes32[]"
        },
        {
          "components": [
            {
              "internalType": "uint256",
              "name": "id",
              "type": "uint256"
            },
            {
              "internalType": "string",
              "name": "title",
              "type": "string"
            },
            {
              "internalType": "enum EncryptedTasks.TaskStatus",
              "name": "status",
              "type": "uint8"
            },
            {
              "internalType": "enum EncryptedTasks.Priority",
              "name": "priority",
              "type": "uint8"
            },
            {
              "internalType": "uint256",
              "name": "dueDate",
              "type": "uint256"
            },
            {
              "internalType": "string",
              "name": "category",
              "type": "string"
            },
            {
              "internalType": "string[]",
              "name": "tags",
              "type": "string[]"
            },
            {
              "internalType": "uint256",
              "name": "createdAt",
              "type": "uint256"
            },
            {
              "internalType": "uint256",
              "name": "updatedAt",
              "type": "uint256"
            },
            {
              "internalType": "uint256",
              "name": "completedAt",
              "type": "uint256"
            },
            {
              "internalType": "uint8",
              "name": "chunkCount",
              "type": "uint8"
            },
            {
              "internalType": "bool",
              "name": "isArchived",
              "type": "bool"
            },
            {
              "internalType": "bool",
              "name": "isFavorite",
              "type": "bool"
            },
            {
              "internalType": "string",
              "name": "color",
              "type": "string"
            },
            {
              "internalType": "address",
              "name": "owner",
              "type": "address"
            }
          ],
          "internalType": "struct EncryptedTasks.TaskMetadata",
          "name": "metadata",
          "type": "tuple"
        }
      ],
      "stateMutability": "view",
      "type": "function"
    },
    {
      "inputs": [
        {
          "internalType": "string",
          "name": "category",
          "type": "string"
        }
      ],
      "name": "getTasksByCategory",
      "outputs": [
        {
          "internalType": "uint256[]",
          "name": "",
          "type": "uint256[]"
        }
      ],
      "stateMutability": "view",
      "type": "function"
    },
    {
      "inputs": [
        {
          "internalType": "string",
          "name": "tag",
          "type": "string"
        }
      ],
      "name": "getTasksByTag",
      "outputs": [
        {
          "internalType": "uint256[]",
          "name": "",
          "type": "uint256[]"
        }
      ],
      "stateMutability": "view",
      "type": "function"
    },
    {
      "inputs": [],
      "name": "getTasksCount",
      "outputs": [
        {
          "internalType": "uint256",
          "name": "",
          "type": "uint256"
        }
      ],
      "stateMutability": "view",
      "type": "function"
    },
    {
      "inputs": [],
      "name": "protocolId",
      "outputs": [
        {
          "internalType": "uint256",
          "name": "",
          "type": "uint256"
        }
      ],
      "stateMutability": "pure",
      "type": "function"
    },
    {
      "inputs": [
        {
          "internalType": "uint256",
          "name": "taskId",
          "type": "uint256"
        },
        {
          "internalType": "bool",
          "name": "archived",
          "type": "bool"
        }
      ],
      "name": "setArchived",
      "outputs": [],
      "stateMutability": "nonpayable",
      "type": "function"
    },
    {
      "inputs": [
        {
          "internalType": "uint256",
          "name": "taskId",
          "type": "uint256"
        },
        {
          "internalType": "bool",
          "name": "favorite",
          "type": "bool"
        }
      ],
      "name": "setFavorite",
      "outputs": [],
      "stateMutability": "nonpayable",
      "type": "function"
    },
    {
      "inputs": [
        {
          "internalType": "uint256",
          "name": "taskId",
          "type": "uint256"
        },
        {
          "internalType": "address",
          "name": "recipient",
          "type": "address"
        }
      ],
      "name": "shareTask",
      "outputs": [],
      "stateMutability": "nonpayable",
      "type": "function"
    },
    {
      "inputs": [
        {
          "internalType": "uint256",
          "name": "taskId",
          "type": "uint256"
        },
        {
          "internalType": "externalEuint32[]",
          "name": "encryptedChunks",
          "type": "bytes32[]"
        },
        {
          "internalType": "bytes",
          "name": "inputProof",
          "type": "bytes"
        },
        {
          "internalType": "string",
          "name": "title",
          "type": "string"
        },
        {
          "internalType": "enum EncryptedTasks.Priority",
          "name": "priority",
          "type": "uint8"
        },
        {
          "internalType": "uint256",
          "name": "dueDate",
          "type": "uint256"
        },
        {
          "internalType": "string",
          "name": "category",
          "type": "string"
        },
        {
          "internalType": "string[]",
          "name": "tags",
          "type": "string[]"
        },
        {
          "internalType": "string",
          "name": "color",
          "type": "string"
        }
      ],
      "name": "updateTask",
      "outputs": [],
      "stateMutability": "nonpayable",
      "type": "function"
    },
    {
      "inputs": [
        {
          "internalType": "uint256",
          "name": "taskId",
          "type": "uint256"
        },
        {
          "internalType": "enum EncryptedTasks.Priority",
          "name": "newPriority",
          "type": "uint8"
        }
      ],
      "name": "updateTaskPriority",
      "outputs": [],
      "stateMutability": "nonpayable",
      "type": "function"
    },
    {
      "inputs": [
        {
          "internalType": "uint256",
          "name": "taskId",
          "type": "uint256"
        },
        {
          "internalType": "enum EncryptedTasks.TaskStatus",
          "name": "newStatus",
          "type": "uint8"
        }
      ],
      "name": "updateTaskStatus",
      "outputs": [],
      "stateMutability": "nonpayable",
      "type": "function"
    },
    {
      "inputs": [
        {
          "internalType": "address",
          "name": "",
          "type": "address"
        }
      ],
      "name": "userStats",
      "outputs": [
        {
          "internalType": "uint256",
          "name": "totalTasks",
          "type": "uint256"
        },
        {
          "internalType": "uint256",
          "name": "todoTasks",
          "type": "uint256"
        },
        {
          "internalType": "uint256",
          "name": "inProgressTasks",
          "type": "uint256"
        },
        {
          "internalType": "uint256",
          "name": "completedTasks",
          "type": "uint256"
        },
        {
          "internalType": "uint256",
          "name": "archivedTasks",
          "type": "uint256"
        },
        {
          "internalType": "uint256",
          "name": "favoriteTasks",
          "type": "uint256"
        },
        {
          "internalType": "uint256",
          "name": "overdueTasks",
          "type": "uint256"
        },
        {
          "internalType": "uint256",
          "name": "totalStorage",
          "type": "uint256"
        }
      ],
      "stateMutability": "view",
      "type": "function"
    }
  ],
  "bytecode": "0x6080604052346200015b57600060606200001862000160565b82815282602082015282604082015201526200003362000160565b606073687820221192c5b662b25367f70076a37bc79b6c9182815273848b0066793bcc60346da1f49049357399b8d59580602083015273a02cda4ca3a71d7c46997716f4283aa851c2881291826040820152731364cbbf2cdf5032c47d8226a6f6fbd2afcdacac938491015260018060a01b0319937f9e7b61f58c47dc699ac88507c4f5bb9f121c03808c5676a8078fe583e464970090858254161790557f9e7b61f58c47dc699ac88507c4f5bb9f121c03808c5676a8078fe583e464970190848254161790557f9e7b61f58c47dc699ac88507c4f5bb9f121c03808c5676a8078fe583e464970290838254161790557f9e7b61f58c47dc699ac88507c4f5bb9f121c03808c5676a8078fe583e464970391825416179055604051612fcf9081620001978239f35b600080fd5b60405190608082016001600160401b038111838210176200018057604052565b634e487b7160e01b600052604160045260246000fdfe6080604052600436101561001257600080fd5b60e0600035811c9081632419b890146121ff5781635587b23a146121e3578163560f319214612049578163569bea8514611e975781636e13f81814611cac5781637a52723e14611bb8578163806f1c09146119b25781638a65d8741461192c578163925a3e2f146118995781639c7a7c561461116d5781639eb0204d146110695781639f8992731461103f578163ab9b681114610e31578163bd42e71d14610d5a578163c074b6a114610d3d578163cae2cbe514610c37578163cd8e01d114610a9957508063da1f12ab14610a7c578063e3e1ed3e146109d95763ff47316d146100fb57600080fd5b346109d4576101003660031901126109d4576004356001600160401b0381116109d45761012c90369060040161277d565b906024356001600160401b0381116109d45761014c903690600401612714565b916044356001600160401b0381116109d45761016c903690600401612714565b600360649392933510156109d45760a4356001600160401b0381116109d457610199903690600401612714565b939060c4356001600160401b0381116109d4576101ba90369060040161277d565b91909560e4356001600160401b0381116109d4576101dc903690600401612714565b9690996101ea8c1515612bf0565b6101f760808d1115612c29565b3360005260016020526103e8604060002054101561099b5761021a871515612c66565b6102238c612976565b996102316040519b8c612817565b8c8b5261023d8d612976565b601f19013660208d01378c60005b8c82821061094257505050505050336000526000602052604060002095865496600160401b8810156106445787610287916001820181556128ed565b508781556001810180546001600160a01b03191633179055996001600160401b038711610644576102bb60038c01546129eb565b601f811161090d575b50600087601f81116001146108a057806102f492600091610895575b508160011b916000199060031b1c19161790565b60038c01555b61031260048c0160ff19815416815560643590612d52565b60843560058c01556001600160401b0383116106445761033560068c01546129eb565b601f8111610860575b50600083601f81116001146107f3578061036d926000916107e857508160011b916000199060031b1c19161790565b60068c01555b600160401b85116106445760078b01548560078d0155808610610770575b508860078c0160005260206000206000915b87831061065a575050504260088c01554260098c01556000600a8c0155600b8b0160ff8d1662ffffff198254161790556001600160401b038211610644576103ee600c8c01546129eb565b601f8111610604575b50600090601f831160011461059057610429929160009183610585575b50508160011b916000199060031b1c19161790565b600c8a01559897985b600260009a01995b8851811015610460578061045a6104536001938c6129d7565b518d612d06565b0161043a565b50859089336000526001602052604060002061047c8154612dc4565b905533600052600160205260016040600020016104998154612dc4565b90553360005260016020526104b76007604060002001918254612ca3565b905580610561575b50505060005b8181106105295760208580867f11bf9052a16c87f04a83790b4d680f3b44d08b95faa466d9dfead8393806cc296105088860405193604085526040850191612da3565b916105146064356124fc565b606435868201528033930390a3604051908152f35b60019033600052600360205261055b8661055660406000206105508560051b8c018c612d71565b90612bd7565b612d06565b016104c5565b61057d9261055691336000526002602052604060002091612bd7565b8584816104bf565b013590503880610414565b600c8c939293016000526020600020906000935b601f19841685106105ec576001945083601f198116106105d2575b505050811b01600c8a0155989798610432565b0135600019600384901b60f8161c191690553880806105bf565b818101358355602094850194600190930192016105a4565b61063490600c8d016000526020600020601f850160051c8101916020861061063a575b601f0160051c0190612d3b565b386103f7565b9091508190610627565b634e487b7160e01b600052604160045260246000fd5b610664818d612d71565b906001600160401b0382116106445761067d84546129eb565b601f811161073e575b50600090601f83116001146106ce57926106bf836001959460209487966000926105855750508160011b916000199060031b1c19161790565b85555b019201920191906103a3565b8460005260206000209160005b601f1985168110610726575083602093600196938796938794601f1981161061070c575b505050811b0185556106c2565b0135600019600384901b60f8161c191690553880806106ff565b909260206001819286860135815501940191016106db565b61076a90856000526020600020601f850160051c8101916020861061063a57601f0160051c0190612d3b565b38610686565b60078c016000526020600020908682015b8183018110610791575050610391565b8061079e600192546129eb565b806107ab575b5001610781565b601f811183146107c15750600081555b386107a4565b6000908282526107df601f60208420920160051c8201858301612d3b565b818355556107bb565b9050860135386102e0565b5060068c0160005260206000209060005b601f1986168110610848575084601f1981161061082e575b5050600183811b0160068c0155610373565b850135600019600386901b60f8161c19169055388061081c565b9091602060018192858a013581550193019101610804565b61088f9060068d016000526020600020601f860160051c8101916020871061063a57601f0160051c0190612d3b565b3861033e565b9050880135386102e0565b5060038c0160005260206000209060005b601f198a1681106108f5575088601f198116106108db575b5050600187811b0160038c01556102fa565b87013560001960038a901b60f8161c1916905538806108c9565b9091602060018192858c0135815501930191016108b1565b61093c9060038d016000526020600020601f8a0160051c81019160208b1061063a57601f0160051c0190612d3b565b386102c4565b61096e82610968610956826001978b612cb0565b35610962368a8a612cc0565b90612dd3565b926129d7565b526109848d61097e8333926129d7565b51612f12565b6109938d61097e8330926129d7565b018d9061024b565b60405162461bcd60e51b815260206004820152601160248201527013585e081d185cdadcc81c995858da1959607a1b6044820152606490fd5b600080fd5b346109d4576020806003193601126109d4576004356001600160401b0381116109d457610a0d610a21913690600401612714565b336000526002602052604060002091612bd7565b906040519081602084549182815201936000526020600020916000905b828210610a6557610a6185610a5581890382612817565b60405191829182612741565b0390f35b835486529485019460019384019390910190610a3e565b346109d45760003660031901126109d45760206040516127118152f35b346109d45760203660031901126109d457610ae5600435610ab8612838565b50336000526000602052610ad260406000205482106128ab565b33600052600060205260406000206128ed565b5060018082015490929190610b04906001600160a01b0316151561291f565b600b81015460ff8116610b168161298d565b946002840160005b838110610c135750505082549360048401549060ff82169160081c60ff1690600586015490600887015491600988015493600a890154956040519a610b628c6127cc565b8b52610b7060038b01612a25565b60208c0152610b7e816124fc565b60408b0152610b8c816124fc565b60608a01526080890152610ba260068801612a25565b60a0890152610bb360078801612aca565b60c08901528701526101008601526101208501526101408401528060081c60ff16151561016084015260101c60ff161515610180830152600c01610bf690612a25565b6101a0820152336101c0820152604051918291610a61918361265d565b80610c1f8492846129bf565b90549060031b1c610c30828b6129d7565b5201610b1e565b346109d457610c45366127ad565b336000526000602052610c5e60406000205483106128ab565b336000526000602052610c758260406000206128ed565b506001810154909190610c92906001600160a01b0316151561291f565b600b820191825492821515938460ff8260101c16151503610caf57005b62ff00008560101b169062ff00001916179055600942910155600014610d1b573360005260016020526005604060002001610cea8154612dc4565b90555b6040519081527f07f48610511e09f72a53eefc80224e85460b47c4326fc061519549b85a5b0d4460203392a3005b3360005260016020526005604060002001610d368154612b42565b9055610ced565b346109d45760003660031901126109d45760206040516103e88152f35b346109d45760403660031901126109d45760043560243560038110156109d457336000526000602052610d9360406000205483106128ab565b336000526000602052610daa8260406000206128ed565b506001810154610dc4906001600160a01b0316151561291f565b600481018260ff825460081c16610dda826124fc565b610de3816124fc565b03610dea57005b82610df491612d52565b60094291015560405190610e07816124fc565b81527f3483b65b5d3eff1dd3ba86591cccd0abf528c2d5e816890d61ab5dd80d940c7060203392a3005b346109d45760403660031901126109d45760043560243560038110156109d45733600052602060008152610e6b60406000205484106128ab565b3360005260008152610e818360406000206128ed565b5060018082015490929190610ea0906001600160a01b0316151561291f565b6004810160ff81541693610eb3866124fc565b610ebc856124fc565b858503610ec557005b84610ef07f13ed87f987e45b3ba4aa0c91bfa9334aa741197bfe8f2506aaa14388f5f95eed966124fc565b80610fe457503360005280845280604060002001610f0e8154612b42565b90555b610f1a866124fc565b85610f705733600052808452604060002001610f368154612dc4565b90556000600a8301555b610f49856124fc565b60ff1981541660ff861617905560094291015560405192610f69816124fc565b83523392a3005b610f79866124fc565b858103610fa6573360005283526002604060002001610f988154612dc4565b90556000600a830155610f40565b610faf866124fc565b60028614610fbe575b50610f40565b3360005283526003604060002001610fd68154612dc4565b905542600a83015586610fb8565b610fed816124fc565b808203611015575033600052808452600260406000200161100e8154612b42565b9055610f11565b806110216002926124fc565b03610f115733600052808452600360406000200161100e8154612b42565b346109d45760003660031901126109d4573360005260006020526020604060002054604051908152f35b346109d457611077366127ad565b33600052600060205261109060406000205483106128ab565b3360005260006020526110a78260406000206128ed565b5060018101549091906110c4906001600160a01b0316151561291f565b600b820191825492821515938460ff8260081c161515036110e157005b61ff008560081b169061ff00191617905560094291015560001461114b57336000526001602052600460406000200161111a8154612dc4565b90555b6040519081527fb2d7879696c76473947927c745fefda095130c0084ed52979d994b7a1c1d94f260203392a3005b33600052600160205260046040600020016111668154612b42565b905561111d565b346109d4576101203660031901126109d4576024356001600160401b0381116109d45761119e90369060040161277d565b6044356001600160401b0381116109d4576111bd903690600401612714565b916064356001600160401b0381116109d4576111dd903690600401612714565b939094600360843510156109d45760c4356001600160401b0381116109d45761120a903690600401612714565b6001600160401b0360e435116109d4576112293660e43560040161277d565b9190926001600160401b0361010435116109d45761124d3661010435600401612714565b95909633600052600060205261126b604060002054600435106128ab565b611276891515612bf0565b61128360808a1115612c29565b61128e8b1515612c66565b3360005260006020526112a760043560406000206128ed565b509960ff600b8c0154163360005260016020526112cd6007604060002001918254612b1f565b905533600052600160205260076040600020016112eb8b8254612ca3565b90556112f960028c01612b4f565b8a60005b8b808210611860575050505050506001600160401b0389116106445761132660038901546129eb565b601f811161182b575b50600089601f81116001146117bc578061135e926000916117b157508160011b916000199060031b1c19161790565b60038901555b61137360843560048a01612d52565b60a43560058901556001600160401b0382116106445761139660068901546129eb565b601f811161177c575b50600090601f831160011461170b576113d09291600091836117005750508160011b916000199060031b1c19161790565b60068701555b600160401b8111610644576007860154816007880155808210611688575b5081600787016000526020600020906000935b838510611572575050505050600c8401916001600160401b0382116106445761143083546129eb565b601f8111611540575b50600090601f83116001146114d457918061146f9260ff9695946000926114c95750508160011b916000199060031b1c19161790565b90555b1660ff19600b8301541617600b8201556009429101557f6b453b6adc8ef22128c2019adf1d4aa703ca6edd91f0d692ac03e638bde9327160405160208152806114c46004359533956020840191612da3565b0390a3005b013590508980610414565b601f198316918460005260206000209260005b818110611528575091600193918560ff989796941061150e575b505050811b019055611472565b0135600019600384901b60f8161c19169055888080611501565b919360206001819287870135815501950192016114e7565b61156c90846000526020600020601f850160051c8101916020861061063a57601f0160051c0190612d3b565b87611439565b61157c8183612d71565b906001600160401b0382116106445761159585546129eb565b601f8111611656575b50600090601f83116001146115e657926115d7836001959460209487966000926105855750508160011b916000199060031b1c19161790565b86555b01930194019391611407565b8560005260206000209160005b601f198516811061163e575083602093600196938796938794601f19811610611624575b505050811b0186556115da565b0135600019600384901b60f8161c19169055388080611617565b909260206001819286860135815501940191016115f3565b61168290866000526020600020601f850160051c8101916020861061063a57601f0160051c0190612d3b565b8d61159e565b600787016000526020600020908282015b81830181106116a95750506113f4565b806116b6600192546129eb565b806116c3575b5001611699565b601f811183146116d95750600081555b8c6116bc565b6000908282526116f7601f60208420920160051c8201858301612d3b565b818355556116d3565b013590508b80610414565b600689939293016000526020600020906000935b601f1984168510611764576001945083601f1981161061174a575b505050811b0160068701556113d6565b0135600019600384901b60f8161c191690558a808061173a565b8181013583556020948501946001909301920161171f565b6117ab9060068a016000526020600020601f850160051c8101916020861061063a57601f0160051c0190612d3b565b8a61139f565b90508c01358d6102e0565b506003890160005260206000209060005b8c601f198d1682106118135750508a601f198116106117f9575b5050600189811b016003890155611364565b8b013560001960038c901b60f8161c191690558a806117e7565b600183946020939484930135815501930191016117cd565b61185a9060038a016000526020600020601f8c0160051c81019160208d1061063a57601f0160051c0190612d3b565b8a61132f565b600192600261187661095685611891958b612cb0565b916118813384612f12565b61188b3084612f12565b01612d06565b018b906112fd565b346109d4576020806003193601126109d4576004356001600160401b0381116109d4576118cd6118e1913690600401612714565b336000526003602052604060002091612bd7565b906040519081602084549182815201936000526020600020916000905b82821061191557610a6185610a5581890382612817565b8354865294850194600193840193909101906118fe565b346109d45760203660031901126109d457610100906001600160a01b036119516124a6565b1660005260016020526040600020805491600182015491600281015460038201546004830154906005840154926007600686015495015496604051988952602089015260408801526060870152608086015260a085015260c0840152820152f35b346109d45760403660031901126109d4576001600160a01b0360248035828116926004359291908482036109d45733600052602091600083526119fb60406000205486106128ab565b8515611b8057338614611b3c573360005260008352611a1e8560406000206128ed565b50600191611a3384600184015416151561291f565b600091600201835b611b0a575b50505050846000526004825260406000209160405190604082018281106001600160401b03821117611af557604052338252810192858452805490600160401b821015611af55790611a979160018201815561295a565b949094611ae157505183546001600160a01b03191691161782555160019190910155337f5d6d8510de0cf1320cbaf067f755fa8b9f0910abd0e312bab5af72f2369c52c2600080a4005b634e487b7160e01b60005260006004526000fd5b85634e487b7160e01b60005260416004526000fd5b8054831015611b37578383611b3084611b248497866129bf565b90549060031b1c612f12565b0192611a3b565b611a40565b60405162461bcd60e51b815260048101849052601a818601527f43616e6e6f74207368617265207769746820796f757273656c660000000000006044820152606490fd5b60405162461bcd60e51b81526004810184905260118186015270125b9d985b1a59081c9958da5c1a595b9d607a1b6044820152606490fd5b346109d45760003660031901126109d45780600061010092604051611bdc816127e8565b8281528260208201528260408201528260608201528260808201528260a08201528260c08201520152336000526001602052604060002090604051611c20816127e8565b8254928382526001810154602083019081526002820154604084019081526003830154606085019081526004840154916080860192835260058501549360a0870194855287600760068801549760c08a01988952015497019687526040519889525160208901525160408801525160608701525160808601525160a08501525160c08401525190820152f35b346109d45760003660031901126109d4573360005260006020526040600020908154611cd781612b87565b9160005b828110611cf05760405180610a6186826126b0565b611cfa81866128ed565b5054611d0682876128ed565b50908287611d1482826128ed565b506004015460ff16611d2683836128ed565b5060040154600890611d3885856128ed565b5060050154611d4786866128ed565b50611d5287876128ed565b509084611d5f89896128ed565b50015492611d6d89896128ed565b506009015494611d7d8a8a6128ed565b50600a015496611d8d8b8b6128ed565b50600b015460ff1698611da08c8c6128ed565b50600b0154821c60ff169a611db58d826128ed565b50600b015460101c60ff169c611dca916128ed565b509c6040519e8f91611ddb836127cc565b8252600301611de990612a25565b90602001528d611df8826124fc565b60400152611e0a60ff83831c166124fc565b1c60ff1660608c015260808b0152600601611e2490612a25565b60a08a0152600701611e3590612aca565b60c08901528988015261010087015261012086015261014085015215156101608401521515610180830152600c01611e6c90612a25565b6101a0820152336101c0820152611e8382866129d7565b52611e8e81856129d7565b50600101611cdb565b346109d45760003660031901126109d457336000526004602052604060002090815490611ec382612b87565b9260005b838110611edc5760405180610a6187826126b0565b80611ee96001928461295a565b50828060a01b03809154166000526000602052604060002090611f1a611f0f848761295a565b5085015485936128ed565b50818382015416611f2f575b50505001611ec7565b600c61201f91611f8f94611f43878a61295a565b50015493888760048401549260ff93848082169160081c16600587015490600888015492600989015494611f81600a8b015497600b8c01549961295a565b5054169b6040519d8e6127cc565b8d528c6020611fa060038c01612a25565b910152611fac816124fc565b60408d0152611fba816124fc565b60608c015260808b0152611fd060068701612a25565b60a08b0152611fe160078701612aca565b60c08b01528d8a0152610100890152610120880152818116610140880152818160081c16151561016088015260101c16151561018086015201612a25565b6101a08301526101c082015261203582886129d7565b5261204081876129d7565b50868080611f26565b346109d4576020806003193601126109d45760043590336000526000815261207760406000205483106128ab565b336000526000815261208d8260406000206128ed565b50600b81019160ff835416903360005260ff60019485938484526120ba6007604060002001918254612b1f565b9055816004860154166120cc816124fc565b80612188575033600052838352836040600020016120ea8154612b42565b90555b81815460081c16612168575b5460101c16612148575b505061211160028201612b4f565b0180546001600160a01b0319169055337fd1bc87501afcaa22b7f6481dac99ed45fbe02321873ca9b55c1f41b9d78b8fb3600080a3005b3360005252600560406000200161215f8154612b42565b90558184612103565b3360005283835260046040600020016121818154612b42565b90556120f9565b612191816124fc565b8085036121b957503360005283835260026040600020016121b28154612b42565b90556120ed565b806121c56002926124fc565b036120ed573360005283835260036040600020016121b28154612b42565b346109d45760003660031901126109d457602060405160808152f35b346109d45760403660031901126109d4576122186124a6565b60243591612224612838565b506001600160a01b0391821680156124715780600052600060205261224f60406000205485106128ab565b8060005260006020526122668460406000206128ed565b5060019461227b85600184015416151561291f565b6000903360005260046020526040600020600091888254935b848110612422575b50505050509091929350156123dd57600b81015460ff81166122bd8161298d565b956002840160005b8381106123b95750505082549460048401549060ff82169160081c60ff1690600586015490600887015491600988015493600a890154956040519b6123098d6127cc565b8c5261231760038b01612a25565b60208d0152612325816124fc565b60408c0152612333816124fc565b60608b015260808a015261234960068801612a25565b60a08a015261235a60078801612aca565b60c08a01528801526101008701526101208601526101408501528060081c60ff16151561016085015260101c60ff161515610180840152600c0161239d90612a25565b6101a08301526101c0820152604051918291610a61918361265d565b806123c58492846129bf565b90549060031b1c6123d6828c6129d7565b52016122c5565b60405162461bcd60e51b815260206004820152601860248201527f5461736b206e6f7420736861726564207769746820796f7500000000000000006044820152606490fd5b878a61242e838761295a565b505416148061245b575b612443578101612294565b5094959697505050505090839291868080888161229c565b508282612468838761295a565b50015414612438565b60405162461bcd60e51b815260206004820152600d60248201526c24b73b30b634b21037bbb732b960991b6044820152606490fd5b600435906001600160a01b03821682036109d457565b919082519283825260005b8481106124e8575050826000602080949584010152601f8019910116010190565b6020818301810151848301820152016124c7565b6003111561250657565b634e487b7160e01b600052602160045260246000fd5b906101e08251825261258161253f602092838601519080858701528501906124bc565b604085015161254d816124fc565b60408501526060850151612560816124fc565b60608501526080850151608085015260a085015184820360a08601526124bc565b9060c08401519083830360c08501528151908184528084019381808460051b8301019401946000915b84831061262f575050505050612617915060e084015160e08401526101008085015190840152610120808501519084015261014060ff81860151169084015261016080850151151590840152610180808501511515908401526101a08085015190848303908501526124bc565b6101c0928301516001600160a01b0316919092015290565b9091929394848061264c600193601f198682030187528a516124bc565b9801930193019195949392906125aa565b9092916040820191604081528451809352606081019260208096019060005b81811061269c57505050612699939450602081840391015261251c565b90565b82518652948701949187019160010161267c565b6020808201906020835283518092526040830192602060408460051b8301019501936000915b8483106126e65750505050505090565b9091929394958480612704600193603f198682030187528a5161251c565b98019301930191949392906126d6565b9181601f840112156109d4578235916001600160401b0383116109d457602083818601950101116109d457565b602090602060408183019282815285518094520193019160005b828110612769575050505090565b83518552938101939281019260010161275b565b9181601f840112156109d4578235916001600160401b0383116109d4576020808501948460051b0101116109d457565b60409060031901126109d4576004359060243580151581036109d45790565b6101e081019081106001600160401b0382111761064457604052565b61010081019081106001600160401b0382111761064457604052565b6001600160401b03811161064457604052565b90601f801991011681019081106001600160401b0382111761064457604052565b60405190612845826127cc565b816101c060009182815260606020820152826040820152826060820152826080820152606060a0820152606060c08201528260e0820152826101008201528261012082015282610140820152826101608201528261018082015260606101a08201520152565b156128b257565b60405162461bcd60e51b815260206004820152601360248201527215185cdac8191bd95cc81b9bdd08195e1a5cdd606a1b6044820152606490fd5b805482101561290957600052600d602060002091020190600090565b634e487b7160e01b600052603260045260246000fd5b1561292657565b60405162461bcd60e51b815260206004820152600c60248201526b15185cdac819195b195d195960a21b6044820152606490fd5b80548210156129095760005260206000209060011b0190600090565b6001600160401b0381116106445760051b60200190565b9061299782612976565b6129a46040519182612817565b82815280926129b5601f1991612976565b0190602036910137565b80548210156129095760005260206000200190600090565b80518210156129095760209160051b010190565b90600182811c92168015612a1b575b6020831014612a0557565b634e487b7160e01b600052602260045260246000fd5b91607f16916129fa565b90604051918260008254612a38816129eb565b90818452602094600191600181169081600014612aa85750600114612a69575b505050612a6792500383612817565b565b600090815285812095935091905b818310612a90575050612a679350820101388080612a58565b85548884018501529485019487945091830191612a77565b92505050612a6794925060ff191682840152151560051b820101388080612a58565b908154612ad681612976565b92612ae46040519485612817565b818452600090815260208082208186015b848410612b03575050505050565b6001838192612b1185612a25565b815201920193019290612af5565b91908203918211612b2c57565b634e487b7160e01b600052601160045260246000fd5b8015612b2c576000190190565b8054906000906000815582612b6357505050565b6000526020600020918201915b828110612b7c57505050565b818155600101612b70565b90612b9182612976565b612b9e6040519182612817565b8281528092612baf601f1991612976565b019060005b828110612bc057505050565b602090612bcb612838565b82828501015201612bb4565b6020919283604051948593843782019081520301902090565b15612bf757565b60405162461bcd60e51b815260206004820152600a602482015269456d707479207461736b60b01b6044820152606490fd5b15612c3057565b60405162461bcd60e51b815260206004820152600e60248201526d5461736b20746f6f206c6172676560901b6044820152606490fd5b15612c6d57565b60405162461bcd60e51b815260206004820152600e60248201526d151a5d1b19481c995c5d5a5c995960921b6044820152606490fd5b91908201809211612b2c57565b91908110156129095760051b0190565b9291926001600160401b0382116106445760405191612ce9601f8201601f191660200184612817565b8294818452818301116109d4578281602093846000960137010152565b8054600160401b81101561064457612d23916001820181556129bf565b819291549060031b91821b91600019901b1916179055565b818110612d46575050565b60008155600101612d3b565b90612d5c816124fc565b61ff0082549160081b169061ff001916179055565b903590601e19813603018212156109d457018035906001600160401b0382116109d4576020019181360383136109d457565b908060209392818452848401376000828201840152601f01601f1916010190565b6000198114612b2c5760010190565b90612e3591602060018060a01b0391827f9e7b61f58c47dc699ac88507c4f5bb9f121c03808c5676a8078fe583e4649701541660405180968196829463196d0b9b60e01b845260048401523360248401526080604484015260848301906124bc565b60046064830152600096879103925af1928315612f07578293612ecf575b507f9e7b61f58c47dc699ac88507c4f5bb9f121c03808c5676a8078fe583e4649700541690813b15612ecc57604051630f8e573b60e21b8152600481018490523360248201529181908390604490829084905af1908115612ec05750612eb7575090565b61269990612804565b604051903d90823e3d90fd5b80fd5b9092506020813d602011612eff575b81612eeb60209383612817565b81010312612efb57519138612e53565b5080fd5b3d9150612ede565b6040513d84823e3d90fd5b7f9e7b61f58c47dc699ac88507c4f5bb9f121c03808c5676a8078fe583e4649700546001600160a01b031691823b156109d457604051635ca4b5b160e11b815260048101929092526001600160a01b03166024820152906000908290604490829084905af18015612f8d57612f845750565b612a6790612804565b6040513d6000823e3d90fdfea2646970667358221220cb6c938fde0c21d37cedfe809aa292b760f168530991e4e08a93afe3d46472f464736f6c63430008180033",
  "linkReferences": {},
  "deployedLinkReferences": {}
}